{
  "contractName": "MarketPlace",
  "abi": [
    {
      "inputs": [],
      "stateMutability": "nonpayable",
      "type": "constructor"
    },
    {
      "anonymous": false,
      "inputs": [
        {
          "indexed": false,
          "internalType": "enum MarketPlace.Status",
          "name": "status",
          "type": "uint8"
        }
      ],
      "name": "StatusChanged",
      "type": "event"
    },
    {
      "inputs": [
        {
          "internalType": "address",
          "name": "_customer",
          "type": "address"
        }
      ],
      "name": "getItem",
      "outputs": [
        {
          "components": [
            {
              "internalType": "string",
              "name": "name",
              "type": "string"
            },
            {
              "internalType": "enum MarketPlace.Status",
              "name": "status",
              "type": "uint8"
            },
            {
              "internalType": "address payable",
              "name": "deliveryMan",
              "type": "address"
            },
            {
              "internalType": "address",
              "name": "customer",
              "type": "address"
            }
          ],
          "internalType": "struct MarketPlace.Item",
          "name": "",
          "type": "tuple"
        }
      ],
      "stateMutability": "view",
      "type": "function",
      "constant": true
    },
    {
      "inputs": [
        {
          "internalType": "uint256",
          "name": "_itemIndex",
          "type": "uint256"
        },
        {
          "internalType": "address",
          "name": "_customer",
          "type": "address"
        }
      ],
      "name": "buy",
      "outputs": [],
      "stateMutability": "nonpayable",
      "type": "function"
    },
    {
      "inputs": [
        {
          "internalType": "uint256",
          "name": "_itemIndex",
          "type": "uint256"
        }
      ],
      "name": "ship",
      "outputs": [],
      "stateMutability": "nonpayable",
      "type": "function"
    },
    {
      "inputs": [
        {
          "internalType": "uint256",
          "name": "_itemIndex",
          "type": "uint256"
        }
      ],
      "name": "delivered",
      "outputs": [],
      "stateMutability": "nonpayable",
      "type": "function"
    },
    {
      "inputs": [
        {
          "internalType": "uint256",
          "name": "_itemIndex",
          "type": "uint256"
        }
      ],
      "name": "tip",
      "outputs": [],
      "stateMutability": "payable",
      "type": "function",
      "payable": true
    }
  ],
  "bytecode": "0x608060405273c71fdbde4938d7605528fd998a7a5f5420eabb6a600160006101000a81548173ffffffffffffffffffffffffffffffffffffffff021916908373ffffffffffffffffffffffffffffffffffffffff1602179055503480156200006657600080fd5b50336000806101000a81548173ffffffffffffffffffffffffffffffffffffffff021916908373ffffffffffffffffffffffffffffffffffffffff16021790555060405180608001604052806040518060400160405280600781526020017f52656e61756c740000000000000000000000000000000000000000000000000081525081526020016000600281111562000128577f4e487b7100000000000000000000000000000000000000000000000000000000600052602160045260246000fd5b8152602001600160009054906101000a900473ffffffffffffffffffffffffffffffffffffffff1673ffffffffffffffffffffffffffffffffffffffff168152602001600073ffffffffffffffffffffffffffffffffffffffff168152506002600060048110620001c2577f4e487b7100000000000000000000000000000000000000000000000000000000600052603260045260246000fd5b600302016000820151816000019080519060200190620001e492919062000944565b5060208201518160010160006101000a81548160ff0219169083600281111562000237577f4e487b7100000000000000000000000000000000000000000000000000000000600052602160045260246000fd5b021790555060408201518160010160016101000a81548173ffffffffffffffffffffffffffffffffffffffff021916908373ffffffffffffffffffffffffffffffffffffffff16021790555060608201518160020160006101000a81548173ffffffffffffffffffffffffffffffffffffffff021916908373ffffffffffffffffffffffffffffffffffffffff16021790555090505060405180608001604052806040518060400160405280600481526020017f41756469000000000000000000000000000000000000000000000000000000008152508152602001600060028111156200034e577f4e487b7100000000000000000000000000000000000000000000000000000000600052602160045260246000fd5b8152602001600160009054906101000a900473ffffffffffffffffffffffffffffffffffffffff1673ffffffffffffffffffffffffffffffffffffffff168152602001600073ffffffffffffffffffffffffffffffffffffffff168152506002600160048110620003e8577f4e487b7100000000000000000000000000000000000000000000000000000000600052603260045260246000fd5b6003020160008201518160000190805190602001906200040a92919062000944565b5060208201518160010160006101000a81548160ff021916908360028111156200045d577f4e487b7100000000000000000000000000000000000000000000000000000000600052602160045260246000fd5b021790555060408201518160010160016101000a81548173ffffffffffffffffffffffffffffffffffffffff021916908373ffffffffffffffffffffffffffffffffffffffff16021790555060608201518160020160006101000a81548173ffffffffffffffffffffffffffffffffffffffff021916908373ffffffffffffffffffffffffffffffffffffffff16021790555090505060405180608001604052806040518060400160405280600381526020017f424d57000000000000000000000000000000000000000000000000000000000081525081526020016000600281111562000574577f4e487b7100000000000000000000000000000000000000000000000000000000600052602160045260246000fd5b8152602001600160009054906101000a900473ffffffffffffffffffffffffffffffffffffffff1673ffffffffffffffffffffffffffffffffffffffff168152602001600073ffffffffffffffffffffffffffffffffffffffff16815250600280600481106200060d577f4e487b7100000000000000000000000000000000000000000000000000000000600052603260045260246000fd5b6003020160008201518160000190805190602001906200062f92919062000944565b5060208201518160010160006101000a81548160ff0219169083600281111562000682577f4e487b7100000000000000000000000000000000000000000000000000000000600052602160045260246000fd5b021790555060408201518160010160016101000a81548173ffffffffffffffffffffffffffffffffffffffff021916908373ffffffffffffffffffffffffffffffffffffffff16021790555060608201518160020160006101000a81548173ffffffffffffffffffffffffffffffffffffffff021916908373ffffffffffffffffffffffffffffffffffffffff16021790555090505060405180608001604052806040518060400160405280600481526020017f466961740000000000000000000000000000000000000000000000000000000081525081526020016000600281111562000799577f4e487b7100000000000000000000000000000000000000000000000000000000600052602160045260246000fd5b8152602001600160009054906101000a900473ffffffffffffffffffffffffffffffffffffffff1673ffffffffffffffffffffffffffffffffffffffff168152602001600073ffffffffffffffffffffffffffffffffffffffff16815250600260036004811062000833577f4e487b7100000000000000000000000000000000000000000000000000000000600052603260045260246000fd5b6003020160008201518160000190805190602001906200085592919062000944565b5060208201518160010160006101000a81548160ff02191690836002811115620008a8577f4e487b7100000000000000000000000000000000000000000000000000000000600052602160045260246000fd5b021790555060408201518160010160016101000a81548173ffffffffffffffffffffffffffffffffffffffff021916908373ffffffffffffffffffffffffffffffffffffffff16021790555060608201518160020160006101000a81548173ffffffffffffffffffffffffffffffffffffffff021916908373ffffffffffffffffffffffffffffffffffffffff16021790555090505062000a59565b8280546200095290620009f4565b90600052602060002090601f016020900481019282620009765760008555620009c2565b82601f106200099157805160ff1916838001178555620009c2565b82800160010185558215620009c2579182015b82811115620009c1578251825591602001919060010190620009a4565b5b509050620009d19190620009d5565b5090565b5b80821115620009f0576000816000905550600101620009d6565b5090565b6000600282049050600182168062000a0d57607f821691505b6020821081141562000a245762000a2362000a2a565b5b50919050565b7f4e487b7100000000000000000000000000000000000000000000000000000000600052602260045260246000fd5b6112378062000a696000396000f3fe60806040526004361061004a5760003560e01c806314d8c9811461004f578063244f643b1461008c5780634b5e4108146100b55780637deb6025146100de578063e8b69bc314610107575b600080fd5b34801561005b57600080fd5b5061007660048036038101906100719190610c34565b610123565b6040516100839190610ec1565b60405180910390f35b34801561009857600080fd5b506100b360048036038101906100ae9190610c5d565b61049c565b005b3480156100c157600080fd5b506100dc60048036038101906100d79190610c5d565b6106f6565b005b3480156100ea57600080fd5b5061010560048036038101906101009190610c86565b61094f565b005b610121600480360381019061011c9190610c5d565b6109d3565b005b61012b610b7e565b610133610b7e565b60005b600481101561049257600073ffffffffffffffffffffffffffffffffffffffff1660028260048110610191577f4e487b7100000000000000000000000000000000000000000000000000000000600052603260045260246000fd5b6003020160020160009054906101000a900473ffffffffffffffffffffffffffffffffffffffff1673ffffffffffffffffffffffffffffffffffffffff161415801561026957508373ffffffffffffffffffffffffffffffffffffffff1660028260048110610229577f4e487b7100000000000000000000000000000000000000000000000000000000600052603260045260246000fd5b6003020160020160009054906101000a900473ffffffffffffffffffffffffffffffffffffffff1673ffffffffffffffffffffffffffffffffffffffff16145b1561047f57600281600481106102a8577f4e487b7100000000000000000000000000000000000000000000000000000000600052603260045260246000fd5b600302016040518060800160405290816000820180546102c790610fb6565b80601f01602080910402602001604051908101604052809291908181526020018280546102f390610fb6565b80156103405780601f1061031557610100808354040283529160200191610340565b820191906000526020600020905b81548152906001019060200180831161032357829003601f168201915b505050505081526020016001820160009054906101000a900460ff166002811115610394577f4e487b7100000000000000000000000000000000000000000000000000000000600052602160045260246000fd5b60028111156103cc577f4e487b7100000000000000000000000000000000000000000000000000000000600052602160045260246000fd5b81526020016001820160019054906101000a900473ffffffffffffffffffffffffffffffffffffffff1673ffffffffffffffffffffffffffffffffffffffff1673ffffffffffffffffffffffffffffffffffffffff1681526020016002820160009054906101000a900473ffffffffffffffffffffffffffffffffffffffff1673ffffffffffffffffffffffffffffffffffffffff1673ffffffffffffffffffffffffffffffffffffffff168152505091505b808061048a90610fe8565b915050610136565b5080915050919050565b60008054906101000a900473ffffffffffffffffffffffffffffffffffffffff1673ffffffffffffffffffffffffffffffffffffffff163373ffffffffffffffffffffffffffffffffffffffff161461052a576040517f08c379a000000000000000000000000000000000000000000000000000000000815260040161052190610ea1565b60405180910390fd5b60006002811115610564577f4e487b7100000000000000000000000000000000000000000000000000000000600052602160045260246000fd5b6002826004811061059e577f4e487b7100000000000000000000000000000000000000000000000000000000600052603260045260246000fd5b6003020160010160009054906101000a900460ff1660028111156105eb577f4e487b7100000000000000000000000000000000000000000000000000000000600052602160045260246000fd5b1461062b576040517f08c379a000000000000000000000000000000000000000000000000000000000815260040161062290610e41565b60405180910390fd5b600160028260048110610667577f4e487b7100000000000000000000000000000000000000000000000000000000600052603260045260246000fd5b6003020160010160006101000a81548160ff021916908360028111156106b6577f4e487b7100000000000000000000000000000000000000000000000000000000600052602160045260246000fd5b02179055507fafa725e7f44cadb687a7043853fa1a7e7b8f0da74ce87ec546e9420f04da8c1e60016040516106eb9190610e26565b60405180910390a150565b60008054906101000a900473ffffffffffffffffffffffffffffffffffffffff1673ffffffffffffffffffffffffffffffffffffffff163373ffffffffffffffffffffffffffffffffffffffff1614610784576040517f08c379a000000000000000000000000000000000000000000000000000000000815260040161077b90610ea1565b60405180910390fd5b600160028111156107be577f4e487b7100000000000000000000000000000000000000000000000000000000600052602160045260246000fd5b600282600481106107f8577f4e487b7100000000000000000000000000000000000000000000000000000000600052603260045260246000fd5b6003020160010160009054906101000a900460ff166002811115610845577f4e487b7100000000000000000000000000000000000000000000000000000000600052602160045260246000fd5b14610885576040517f08c379a000000000000000000000000000000000000000000000000000000000815260040161087c90610e61565b60405180910390fd5b60028082600481106108c0577f4e487b7100000000000000000000000000000000000000000000000000000000600052603260045260246000fd5b6003020160010160006101000a81548160ff0219169083600281111561090f577f4e487b7100000000000000000000000000000000000000000000000000000000600052602160045260246000fd5b02179055507fafa725e7f44cadb687a7043853fa1a7e7b8f0da74ce87ec546e9420f04da8c1e60026040516109449190610e26565b60405180910390a150565b806002836004811061098a577f4e487b7100000000000000000000000000000000000000000000000000000000600052603260045260246000fd5b6003020160020160006101000a81548173ffffffffffffffffffffffffffffffffffffffff021916908373ffffffffffffffffffffffffffffffffffffffff1602179055505050565b600280811115610a0c577f4e487b7100000000000000000000000000000000000000000000000000000000600052602160045260246000fd5b60028260048110610a46577f4e487b7100000000000000000000000000000000000000000000000000000000600052603260045260246000fd5b6003020160010160009054906101000a900460ff166002811115610a93577f4e487b7100000000000000000000000000000000000000000000000000000000600052602160045260246000fd5b14610ad3576040517f08c379a0000000000000000000000000000000000000000000000000000000008152600401610aca90610e81565b60405180910390fd5b60028160048110610b0d577f4e487b7100000000000000000000000000000000000000000000000000000000600052603260045260246000fd5b6003020160010160019054906101000a900473ffffffffffffffffffffffffffffffffffffffff1673ffffffffffffffffffffffffffffffffffffffff166108fc349081150290604051600060405180830381858888f19350505050158015610b7a573d6000803e3d6000fd5b5050565b60405180608001604052806060815260200160006002811115610bca577f4e487b7100000000000000000000000000000000000000000000000000000000600052602160045260246000fd5b8152602001600073ffffffffffffffffffffffffffffffffffffffff168152602001600073ffffffffffffffffffffffffffffffffffffffff1681525090565b600081359050610c19816111d3565b92915050565b600081359050610c2e816111ea565b92915050565b600060208284031215610c4657600080fd5b6000610c5484828501610c0a565b91505092915050565b600060208284031215610c6f57600080fd5b6000610c7d84828501610c1f565b91505092915050565b60008060408385031215610c9957600080fd5b6000610ca785828601610c1f565b9250506020610cb885828601610c0a565b9150509250929050565b610ccb81610f22565b82525050565b610cda81610f10565b82525050565b610ce981610f71565b82525050565b610cf881610f71565b82525050565b6000610d0982610ee3565b610d138185610eee565b9350610d23818560208601610f83565b610d2c816110be565b840191505092915050565b6000610d44601683610eff565b9150610d4f826110cf565b602082019050919050565b6000610d67602283610eff565b9150610d72826110f8565b604082019050919050565b6000610d8a601e83610eff565b9150610d9582611147565b602082019050919050565b6000610dad603183610eff565b9150610db882611170565b604082019050919050565b60006080830160008301518482036000860152610de08282610cfe565b9150506020830151610df56020860182610ce0565b506040830151610e086040860182610cc2565b506060830151610e1b6060860182610cd1565b508091505092915050565b6000602082019050610e3b6000830184610cef565b92915050565b60006020820190508181036000830152610e5a81610d37565b9050919050565b60006020820190508181036000830152610e7a81610d5a565b9050919050565b60006020820190508181036000830152610e9a81610d7d565b9050919050565b60006020820190508181036000830152610eba81610da0565b9050919050565b60006020820190508181036000830152610edb8184610dc3565b905092915050565b600081519050919050565b600082825260208201905092915050565b600082825260208201905092915050565b6000610f1b82610f47565b9050919050565b6000610f2d82610f47565b9050919050565b6000819050610f42826111bf565b919050565b600073ffffffffffffffffffffffffffffffffffffffff82169050919050565b6000819050919050565b6000610f7c82610f34565b9050919050565b60005b83811015610fa1578082015181840152602081019050610f86565b83811115610fb0576000848401525b50505050565b60006002820490506001821680610fce57607f821691505b60208210811415610fe257610fe161108f565b5b50919050565b6000610ff382610f67565b91507fffffffffffffffffffffffffffffffffffffffffffffffffffffffffffffffff82141561102657611025611031565b5b600182019050919050565b7f4e487b7100000000000000000000000000000000000000000000000000000000600052601160045260246000fd5b7f4e487b7100000000000000000000000000000000000000000000000000000000600052602160045260246000fd5b7f4e487b7100000000000000000000000000000000000000000000000000000000600052602260045260246000fd5b6000601f19601f8301169050919050565b7f6c276974656d206573742064656a612070617274697300000000000000000000600082015250565b7f6c276974656d206573742070617320656e636f726520656e206c69767261697360008201527f6f6e000000000000000000000000000000000000000000000000000000000000602082015250565b7f6c276974656d206e276573742070617320656e636f7265206172726976650000600082015250565b7f6f6e6c7920746865206f776e657220697320616c6c6f77656420746f2061636360008201527f65737320746869732066756e6374696f6e000000000000000000000000000000602082015250565b600381106111d0576111cf611060565b5b50565b6111dc81610f10565b81146111e757600080fd5b50565b6111f381610f67565b81146111fe57600080fd5b5056fea2646970667358221220c94b1653887e2b3ca127b733b6551ec77e13dcbfc2bba1fa1e05447d10dde36c64736f6c63430008040033",
  "immutableReferences": {},
  "source": "// SPDX-License-Identifier: MIT\npragma solidity >=0.4.22 <0.9.0;\n\nimport \"./Owner.sol\";\n\ncontract MarketPlace is Owner{    \n    enum Status{ PENDING, SHIPPED, DELIVERED }\n\n    event StatusChanged(Status status);\n\n\n   struct Item {\n       string name;\n       Status status;\n       address payable deliveryMan;\n       address customer;\n   }\n\n   address payable addressDeliveryMan = payable(0xc71fDbDE4938D7605528FD998a7a5F5420eAbB6A);\n\n   Item[4] listItems;\n\n     // Init our marketplace with 4 items\n   constructor() {\n     listItems[0] = Item(\"Renault\", Status.PENDING, addressDeliveryMan, address(0));\n     listItems[1] = Item(\"Audi\", Status.PENDING, addressDeliveryMan, address(0));\n     listItems[2] = Item(\"BMW\", Status.PENDING, addressDeliveryMan, address(0));\n     listItems[3] = Item(\"Fiat\", Status.PENDING, addressDeliveryMan, address(0));\n   }\n\n   function getItem(address _customer) external view returns (Item memory) {\n        Item memory res;\n        for (uint i=0; i < 4; i++){\n          if(listItems[i].customer != address(0) && listItems[i].customer == _customer){\n               res = listItems[i];\n          }\n        }\n        return res;\n   }\n     // Specify an account in order to buy an item (different from msg.send for testing purpose)\n   function buy(uint _itemIndex, address _customer) external {\n        listItems[_itemIndex].customer = _customer;\n   }\n\n// Only owner of marketplace can start shipment\n   function ship(uint _itemIndex) external onlyOwner(){\n        require(listItems[_itemIndex].status == Status.PENDING, \"l'item est deja partis\");\n        listItems[_itemIndex].status = Status.SHIPPED;\n        emit StatusChanged(Status.SHIPPED);\n   }\n// Only owner of marketplace can start set stats to delivered\n   function delivered(uint _itemIndex) external onlyOwner(){\n        require(listItems[_itemIndex].status == Status.SHIPPED, \"l'item est pas encore en livraison\");\n        listItems[_itemIndex].status = Status.DELIVERED;\n        emit StatusChanged(Status.DELIVERED);\n   }\n   function tip(uint _itemIndex) payable external{\n        require(listItems[_itemIndex].status == Status.DELIVERED, \"l'item n'est pas encore arrive\");\n        listItems[_itemIndex].deliveryMan.transfer(msg.value);\n   }\n}\n",
  "sourcePath": "/home/maxime/Documents/dev/blockchain/contracts/MarketPlace.sol",
  "compiler": {
    "name": "solc",
    "version": "0.8.4+commit.c7e474f2.Emscripten.clang"
  },
  "schemaVersion": "3.3.4",
  "updatedAt": "2021-04-22T15:56:43.939Z",
  "networkType": "ethereum",
  "devdoc": {
    "kind": "dev",
    "methods": {},
    "version": 1
  },
  "userdoc": {
    "kind": "user",
    "methods": {},
    "version": 1
  }
}